{
  "contractName": "DonationPlatform",
  "abi": [
    {
      "anonymous": false,
      "inputs": [
        {
          "indexed": false,
          "internalType": "string",
          "name": "campaignId",
          "type": "string"
        },
        {
          "indexed": false,
          "internalType": "string",
          "name": "title",
          "type": "string"
        },
        {
          "indexed": false,
          "internalType": "address",
          "name": "organizer",
          "type": "address"
        },
        {
          "indexed": false,
          "internalType": "address",
          "name": "recipient",
          "type": "address"
        }
      ],
      "name": "CampaignCreated",
      "type": "event"
    },
    {
      "anonymous": false,
      "inputs": [
        {
          "indexed": false,
          "internalType": "string",
          "name": "campaignId",
          "type": "string"
        }
      ],
      "name": "CampaignRemoved",
      "type": "event"
    },
    {
      "anonymous": false,
      "inputs": [
        {
          "indexed": false,
          "internalType": "string",
          "name": "campaignId",
          "type": "string"
        },
        {
          "indexed": false,
          "internalType": "address",
          "name": "verifier",
          "type": "address"
        }
      ],
      "name": "CampaignVerified",
      "type": "event"
    },
    {
      "anonymous": false,
      "inputs": [
        {
          "indexed": false,
          "internalType": "string",
          "name": "campaignId",
          "type": "string"
        },
        {
          "indexed": false,
          "internalType": "address",
          "name": "donor",
          "type": "address"
        },
        {
          "indexed": false,
          "internalType": "uint256",
          "name": "amount",
          "type": "uint256"
        }
      ],
      "name": "DonationReceived",
      "type": "event"
    },
    {
      "inputs": [
        {
          "internalType": "uint256",
          "name": "",
          "type": "uint256"
        }
      ],
      "name": "campaignIds",
      "outputs": [
        {
          "internalType": "string",
          "name": "",
          "type": "string"
        }
      ],
      "stateMutability": "view",
      "type": "function"
    },
    {
      "inputs": [
        {
          "internalType": "string",
          "name": "",
          "type": "string"
        }
      ],
      "name": "campaigns",
      "outputs": [
        {
          "internalType": "string",
          "name": "id",
          "type": "string"
        },
        {
          "internalType": "string",
          "name": "title",
          "type": "string"
        },
        {
          "internalType": "string",
          "name": "description",
          "type": "string"
        },
        {
          "internalType": "uint256",
          "name": "goalAmount",
          "type": "uint256"
        },
        {
          "internalType": "uint256",
          "name": "raisedAmount",
          "type": "uint256"
        },
        {
          "internalType": "address payable",
          "name": "recipient",
          "type": "address"
        },
        {
          "internalType": "address",
          "name": "organizer",
          "type": "address"
        },
        {
          "internalType": "bool",
          "name": "isActive",
          "type": "bool"
        },
        {
          "internalType": "uint256",
          "name": "verifierCount",
          "type": "uint256"
        }
      ],
      "stateMutability": "view",
      "type": "function"
    },
    {
      "inputs": [
        {
          "internalType": "string",
          "name": "_id",
          "type": "string"
        },
        {
          "internalType": "string",
          "name": "_title",
          "type": "string"
        },
        {
          "internalType": "string",
          "name": "_description",
          "type": "string"
        },
        {
          "internalType": "uint256",
          "name": "_goalAmount",
          "type": "uint256"
        },
        {
          "internalType": "address payable",
          "name": "_recipient",
          "type": "address"
        }
      ],
      "name": "createCampaign",
      "outputs": [],
      "stateMutability": "nonpayable",
      "type": "function"
    },
    {
      "inputs": [
        {
          "internalType": "string",
          "name": "_campaignId",
          "type": "string"
        }
      ],
      "name": "donate",
      "outputs": [],
      "stateMutability": "payable",
      "type": "function"
    },
    {
      "inputs": [
        {
          "internalType": "string",
          "name": "_campaignId",
          "type": "string"
        }
      ],
      "name": "verifyCampaign",
      "outputs": [],
      "stateMutability": "nonpayable",
      "type": "function"
    },
    {
      "inputs": [
        {
          "internalType": "string",
          "name": "_campaignId",
          "type": "string"
        }
      ],
      "name": "removeCampaign",
      "outputs": [],
      "stateMutability": "nonpayable",
      "type": "function"
    },
    {
      "inputs": [],
      "name": "getCampaignCount",
      "outputs": [
        {
          "internalType": "uint256",
          "name": "",
          "type": "uint256"
        }
      ],
      "stateMutability": "view",
      "type": "function"
    },
    {
      "inputs": [
        {
          "internalType": "string",
          "name": "_campaignId",
          "type": "string"
        }
      ],
      "name": "getCampaignSummary",
      "outputs": [
        {
          "internalType": "string",
          "name": "id",
          "type": "string"
        },
        {
          "internalType": "string",
          "name": "title",
          "type": "string"
        },
        {
          "internalType": "string",
          "name": "description",
          "type": "string"
        },
        {
          "internalType": "uint256",
          "name": "goalAmount",
          "type": "uint256"
        },
        {
          "internalType": "uint256",
          "name": "raisedAmount",
          "type": "uint256"
        },
        {
          "internalType": "address",
          "name": "recipient",
          "type": "address"
        },
        {
          "internalType": "address",
          "name": "organizer",
          "type": "address"
        },
        {
          "internalType": "bool",
          "name": "isActive",
          "type": "bool"
        },
        {
          "internalType": "uint256",
          "name": "verifierCount",
          "type": "uint256"
        }
      ],
      "stateMutability": "view",
      "type": "function"
    },
    {
      "inputs": [
        {
          "internalType": "string",
          "name": "_campaignId",
          "type": "string"
        },
        {
          "internalType": "address",
          "name": "_verifier",
          "type": "address"
        }
      ],
      "name": "hasVerified",
      "outputs": [
        {
          "internalType": "bool",
          "name": "",
          "type": "bool"
        }
      ],
      "stateMutability": "view",
      "type": "function"
    }
  ],
  "bytecode": "0x608060405234801561001057600080fd5b5061189a806100206000396000f3fe6080604052600436106100865760003560e01c80638e6564dd116100595780638e6564dd14610129578063a713e25c14610149578063b369359d14610179578063b5aebc80146101a6578063befe7573146101b957600080fd5b806311098a781461008b5780631d39e509146100c957806335640410146100e95780636caa92181461010b575b600080fd5b34801561009757600080fd5b506100ab6100a6366004611390565b6101d9565b6040516100c09998979695949392919061141d565b60405180910390f35b3480156100d557600080fd5b506100ab6100e4366004611390565b61046d565b3480156100f557600080fd5b506101096101043660046114b2565b61066b565b005b34801561011757600080fd5b506001546040519081526020016100c0565b34801561013557600080fd5b50610109610144366004611390565b6108ab565b34801561015557600080fd5b50610169610164366004611559565b610b73565b60405190151581526020016100c0565b34801561018557600080fd5b506101996101943660046115ab565b610c08565b6040516100c091906115c4565b6101096101b4366004611390565b610cb4565b3480156101c557600080fd5b506101096101d4366004611390565b61118b565b606080606060008060008060008089600080826040516101f991906115de565b9081526040519081900360200190208054610213906115fa565b90501161023b5760405162461bcd60e51b815260040161023290611634565b60405180910390fd5b6000808c60405161024c91906115de565b908152604051908190036020019020600381015460048201546005830154600684015460078501548554959650869560018701956002880195909490936001600160a01b03918216939181169260ff600160a01b90920491909116919089906102b4906115fa565b80601f01602080910402602001604051908101604052809291908181526020018280546102e0906115fa565b801561032d5780601f106103025761010080835404028352916020019161032d565b820191906000526020600020905b81548152906001019060200180831161031057829003601f168201915b50505050509850878054610340906115fa565b80601f016020809104026020016040519081016040528092919081815260200182805461036c906115fa565b80156103b95780601f1061038e576101008083540402835291602001916103b9565b820191906000526020600020905b81548152906001019060200180831161039c57829003601f168201915b505050505097508680546103cc906115fa565b80601f01602080910402602001604051908101604052809291908181526020018280546103f8906115fa565b80156104455780601f1061041a57610100808354040283529160200191610445565b820191906000526020600020905b81548152906001019060200180831161042857829003601f168201915b505050505096509a509a509a509a509a509a509a509a509a5050509193959799909294969850565b8051602081830181018051600082529282019190930120915280548190610493906115fa565b80601f01602080910402602001604051908101604052809291908181526020018280546104bf906115fa565b801561050c5780601f106104e15761010080835404028352916020019161050c565b820191906000526020600020905b8154815290600101906020018083116104ef57829003601f168201915b505050505090806001018054610521906115fa565b80601f016020809104026020016040519081016040528092919081815260200182805461054d906115fa565b801561059a5780601f1061056f5761010080835404028352916020019161059a565b820191906000526020600020905b81548152906001019060200180831161057d57829003601f168201915b5050505050908060020180546105af906115fa565b80601f01602080910402602001604051908101604052809291908181526020018280546105db906115fa565b80156106285780601f106105fd57610100808354040283529160200191610628565b820191906000526020600020905b81548152906001019060200180831161060b57829003601f168201915b5050506003840154600485015460058601546006870154600790970154959692959194506001600160a01b03908116935082169160ff600160a01b909104169089565b60008551116106bc5760405162461bcd60e51b815260206004820152601b60248201527f43616d706169676e2049442063616e6e6f7420626520656d70747900000000006044820152606401610232565b6000856040516106cc91906115de565b90815260405190819003602001902080546106e6906115fa565b1590506107355760405162461bcd60e51b815260206004820152601a60248201527f43616d706169676e20494420616c7265616479206578697374730000000000006044820152606401610232565b6001600160a01b03811661078b5760405162461bcd60e51b815260206004820152601960248201527f496e76616c696420726563697069656e742061646472657373000000000000006044820152606401610232565b6000808660405161079c91906115de565b9081526040519081900360200190209050806107b887826116ba565b50600181016107c786826116ba565b50600281016107d685826116ba565b50600381018390556000600482018190556005820180546001600160a01b0319166001600160a01b038516179055600682018054600160a01b6001600160a81b03199091163360ff60a01b1916171790556007820181905560018054808201825591527fb10e2d527612073b26eecdfd717e6a320cf44b4afac2b0732d9fcbe2b7fa0cf60161086587826116ba565b507f89d148e6c2a976873d3cdd9305d73854aa995e444af349cc58edb6431d20e09e8686338560405161089b949392919061177a565b60405180910390a1505050505050565b80600080826040516108bd91906115de565b90815260405190819003602001902080546108d7906115fa565b9050116108f65760405162461bcd60e51b815260040161023290611634565b81336001600160a01b031660008260405161091191906115de565b908152604051908190036020019020600601546001600160a01b0316036109965760405162461bcd60e51b815260206004820152603360248201527f43616d706169676e206f7267616e697a65722063616e6e6f7420766572696679604482015272103a3432b4b91037bbb71031b0b6b830b4b3b760691b6064820152608401610232565b82336001600160a01b03166000826040516109b191906115de565b908152604051908190036020019020600501546001600160a01b031603610a2d5760405162461bcd60e51b815260206004820152602a60248201527f526563697069656e742063616e6e6f7420766572696679207468656972206f77604482015269371031b0b6b830b4b3b760b11b6064820152608401610232565b600084604051610a3d91906115de565b9081526040805160209281900383019020336000908152600890910190925290205460ff1615610abf5760405162461bcd60e51b815260206004820152602760248201527f596f75206861766520616c72656164792076657269666965642074686973206360448201526630b6b830b4b3b760c91b6064820152608401610232565b6001600085604051610ad191906115de565b90815260408051602092819003830181203360009081526008909101909352908220805460ff19169315159390931790925590610b0f9086906115de565b9081526040519081900360200190206007018054906000610b2f836117da565b91905055507f3d8f2cf79450bd28ae1b0f0bfd3f5036f414913546e7ca23b7bfafc9b4d781238433604051610b659291906117f3565b60405180910390a150505050565b60008260008082604051610b8791906115de565b9081526040519081900360200190208054610ba1906115fa565b905011610bc05760405162461bcd60e51b815260040161023290611634565b600084604051610bd091906115de565b90815260408051602092819003830190206001600160a01b0395909516600090815260089095019091529092205460ff169392505050565b60018181548110610c1857600080fd5b906000526020600020016000915090508054610c33906115fa565b80601f0160208091040260200160405190810160405280929190818152602001828054610c5f906115fa565b8015610cac5780601f10610c8157610100808354040283529160200191610cac565b820191906000526020600020905b815481529060010190602001808311610c8f57829003601f168201915b505050505081565b8060008082604051610cc691906115de565b9081526040519081900360200190208054610ce0906115fa565b905011610cff5760405162461bcd60e51b815260040161023290611634565b600082604051610d0f91906115de565b9081526040519081900360200190206006015460ff600160a01b90910416610d725760405162461bcd60e51b815260206004820152601660248201527543616d706169676e206973206e6f742061637469766560501b6044820152606401610232565b60003411610dd15760405162461bcd60e51b815260206004820152602660248201527f446f6e6174696f6e20616d6f756e74206d75737420626520677265617465722060448201526507468616e20360d41b6064820152608401610232565b600082604051610de191906115de565b908152602001604051809103902060030154341115610e585760405162461bcd60e51b815260206004820152602d60248201527f446f6e6174696f6e20616d6f756e742063616e6e6f742065786365656420746860448201526c194819dbd85b08185b5bdd5b9d609a1b6064820152608401610232565b33610e9d5760405162461bcd60e51b8152602060048201526015602482015274496e76616c696420646f6e6f72206164647265737360581b6044820152606401610232565b600082604051610ead91906115de565b908152604051908190036020019020600501546001600160a01b03163303610f175760405162461bcd60e51b815260206004820152601d60248201527f446f6e6f722063616e6e6f742062652074686520726563697069656e740000006044820152606401610232565b600082604051610f2791906115de565b908152604051908190036020019020600601546001600160a01b03163303610f915760405162461bcd60e51b815260206004820152601d60248201527f446f6e6f722063616e6e6f7420626520746865206f7267616e697a65720000006044820152606401610232565b600082604051610fa191906115de565b90815260200160405180910390206003015434600084604051610fc491906115de565b908152602001604051809103902060040154610fe0919061181d565b111561103d5760405162461bcd60e51b815260206004820152602660248201527f446f6e6174696f6e2063616e6e6f74206578636565642074686520676f616c20604482015265185b5bdd5b9d60d21b6064820152608401610232565b600260008360405161104f91906115de565b90815260200160405180910390206007015410156110c05760405162461bcd60e51b815260206004820152602860248201527f43616d706169676e206d7573742068617665206174206c656173742074776f206044820152671d995c9a599a595960c21b6064820152608401610232565b346000836040516110d191906115de565b908152602001604051809103902060040160008282546110f1919061181d565b90915550506040516000906111079084906115de565b908152604051908190036020018120600501546001600160a01b0316903480156108fc02916000818181858888f1935050505015801561114b573d6000803e3d6000fd5b507f30412083243f9fef583232e5c85525f63d20aa1de6567ab4532d2afbf86a873982333460405161117f93929190611836565b60405180910390a15050565b806000808260405161119d91906115de565b90815260405190819003602001902080546111b7906115fa565b9050116111d65760405162461bcd60e51b815260040161023290611634565b81336001600160a01b03166000826040516111f191906115de565b908152604051908190036020019020600601546001600160a01b0316146112755760405162461bcd60e51b815260206004820152603260248201527f4f6e6c79207468652063616d706169676e206f7267616e697a65722063616e2060448201527131b0b636103a3434b990333ab731ba34b7b760711b6064820152608401610232565b6000808460405161128691906115de565b9081526040519081900360200181206006018054921515600160a01b0260ff60a01b19909316929092179091557fb53cb2c9c39903e699590931280329884a6d6abdce83f3dc9ecd263b72bf73f4906112e09085906115c4565b60405180910390a1505050565b634e487b7160e01b600052604160045260246000fd5b600082601f83011261131457600080fd5b813567ffffffffffffffff8082111561132f5761132f6112ed565b604051601f8301601f19908116603f01168101908282118183101715611357576113576112ed565b8160405283815286602085880101111561137057600080fd5b836020870160208301376000602085830101528094505050505092915050565b6000602082840312156113a257600080fd5b813567ffffffffffffffff8111156113b957600080fd5b6113c584828501611303565b949350505050565b60005b838110156113e85781810151838201526020016113d0565b50506000910152565b600081518084526114098160208601602086016113cd565b601f01601f19169290920160200192915050565b60006101208083526114318184018d6113f1565b90508281036020840152611445818c6113f1565b90508281036040840152611459818b6113f1565b6060840199909952505060808101959095526001600160a01b0393841660a08601529190921660c084015290151560e0830152610100909101529392505050565b6001600160a01b03811681146114af57600080fd5b50565b600080600080600060a086880312156114ca57600080fd5b853567ffffffffffffffff808211156114e257600080fd5b6114ee89838a01611303565b9650602088013591508082111561150457600080fd5b61151089838a01611303565b9550604088013591508082111561152657600080fd5b5061153388828901611303565b93505060608601359150608086013561154b8161149a565b809150509295509295909350565b6000806040838503121561156c57600080fd5b823567ffffffffffffffff81111561158357600080fd5b61158f85828601611303565b92505060208301356115a08161149a565b809150509250929050565b6000602082840312156115bd57600080fd5b5035919050565b6020815260006115d760208301846113f1565b9392505050565b600082516115f08184602087016113cd565b9190910192915050565b600181811c9082168061160e57607f821691505b60208210810361162e57634e487b7160e01b600052602260045260246000fd5b50919050565b60208082526017908201527f43616d706169676e20646f6573206e6f74206578697374000000000000000000604082015260600190565b601f8211156116b557600081815260208120601f850160051c810160208610156116925750805b601f850160051c820191505b818110156116b15782815560010161169e565b5050505b505050565b815167ffffffffffffffff8111156116d4576116d46112ed565b6116e8816116e284546115fa565b8461166b565b602080601f83116001811461171d57600084156117055750858301515b600019600386901b1c1916600185901b1785556116b1565b600085815260208120601f198616915b8281101561174c5788860151825594840194600190910190840161172d565b508582101561176a5787850151600019600388901b60f8161c191681555b5050505050600190811b01905550565b60808152600061178d60808301876113f1565b828103602084015261179f81876113f1565b6001600160a01b03958616604085015293909416606090920191909152509392505050565b634e487b7160e01b600052601160045260246000fd5b6000600182016117ec576117ec6117c4565b5060010190565b60408152600061180660408301856113f1565b905060018060a01b03831660208301529392505050565b80820180821115611830576118306117c4565b92915050565b60608152600061184960608301866113f1565b6001600160a01b03949094166020830152506040015291905056fea2646970667358221220aaf9154ca92f2986cb0fe2c5f5f1be97c7fa3aec087fd573d22da3e5774695d264736f6c63430008130033",
  "immutableReferences": {},
  "source": "// SPDX-License-Identifier: MIT\npragma solidity ^0.8.0;\n\ncontract DonationPlatform {\n    struct Campaign {\n        string id;\n        string title;\n        string description;\n        uint256 goalAmount;\n        uint256 raisedAmount;\n        address payable recipient;\n        address organizer;\n        bool isActive;\n        uint256 verifierCount;\n        mapping(address => bool) hasVerified;\n    }\n\n    mapping(string => Campaign) public campaigns;\n    string[] public campaignIds;\n    \n    event CampaignCreated(string campaignId, string title, address organizer, address recipient);\n    event DonationReceived(string campaignId, address donor, uint256 amount);\n    event CampaignVerified(string campaignId, address verifier);\n    event CampaignRemoved(string campaignId);\n\n    modifier campaignExists(string memory _campaignId) {\n        require(bytes(campaigns[_campaignId].id).length > 0, \"Campaign does not exist\");\n        _;\n    }\n\n    modifier onlyCampaignOrganizer(string memory _campaignId) {\n        require(campaigns[_campaignId].organizer == msg.sender, \"Only the campaign organizer can call this function\");\n        _;\n    }\n\n    modifier notOrganizer(string memory _campaignId) {\n        require(campaigns[_campaignId].organizer != msg.sender, \"Campaign organizer cannot verify their own campaign\");\n        _;\n    }\n\n    modifier notRecipient(string memory _campaignId) {\n        require(campaigns[_campaignId].recipient != msg.sender, \"Recipient cannot verify their own campaign\");\n        _;\n    }\n\n    function createCampaign(\n        string memory _id,\n        string memory _title,\n        string memory _description,\n        uint256 _goalAmount,\n        address payable _recipient\n    ) public {\n        require(bytes(_id).length > 0, \"Campaign ID cannot be empty\");\n        require(bytes(campaigns[_id].id).length == 0, \"Campaign ID already exists\");\n        require(_recipient != address(0), \"Invalid recipient address\");\n        \n        Campaign storage newCampaign = campaigns[_id];\n        newCampaign.id = _id;\n        newCampaign.title = _title;\n        \n        newCampaign.description = _description;\n        newCampaign.goalAmount = _goalAmount;\n        newCampaign.raisedAmount = 0;\n        newCampaign.recipient = _recipient;\n        newCampaign.organizer = msg.sender;\n        newCampaign.isActive = true;\n        newCampaign.verifierCount = 0;\n        \n        campaignIds.push(_id);\n        \n        emit CampaignCreated(_id, _title, msg.sender, _recipient);\n    }\n\n    function donate(string memory _campaignId) public payable campaignExists(_campaignId) {\n        require(campaigns[_campaignId].isActive, \"Campaign is not active\");\n        require(msg.value > 0, \"Donation amount must be greater than 0\");\n        require(msg.value <= campaigns[_campaignId].goalAmount, \"Donation amount cannot exceed the goal amount\");\n        require(msg.sender != address(0), \"Invalid donor address\"); \n        require(msg.sender != campaigns[_campaignId].recipient, \"Donor cannot be the recipient\"); \n        require(msg.sender != campaigns[_campaignId].organizer, \"Donor cannot be the organizer\"); \n        //require(!campaigns[_campaignId].hasVerified[msg.sender], \"Donor cannot verify their own campaign\");\n        require(campaigns[_campaignId].raisedAmount + msg.value <= campaigns[_campaignId].goalAmount, \"Donation cannot exceed the goal amount\");\n        require(campaigns[_campaignId].verifierCount >= 2, \"Campaign must have at least two verified\");\n\n        \n        campaigns[_campaignId].raisedAmount += msg.value;\n        \n        // Transfer funds directly to the recipient\n        campaigns[_campaignId].recipient.transfer(msg.value);\n        \n        emit DonationReceived(_campaignId, msg.sender, msg.value);\n    }\n\n    function verifyCampaign(string memory _campaignId) \n        public \n        campaignExists(_campaignId)\n        notOrganizer(_campaignId)\n        notRecipient(_campaignId)\n    {\n        require(!campaigns[_campaignId].hasVerified[msg.sender], \"You have already verified this campaign\");\n\n        campaigns[_campaignId].hasVerified[msg.sender] = true;\n\n        campaigns[_campaignId].verifierCount++;\n        \n        emit CampaignVerified(_campaignId, msg.sender);\n    }\n\n    function removeCampaign(string memory _campaignId) \n        public \n        campaignExists(_campaignId)\n        onlyCampaignOrganizer(_campaignId)\n    {\n        campaigns[_campaignId].isActive = false;\n        \n        emit CampaignRemoved(_campaignId);\n    }\n\n    // Getter functions\n    function getCampaignCount() public view returns (uint256) {\n        return campaignIds.length;\n    }\n\n    function getCampaignSummary(string memory _campaignId) \n        public \n        view \n        campaignExists(_campaignId)\n        returns (\n            string memory id,\n            string memory title,\n            string memory description,\n            uint256 goalAmount,\n            uint256 raisedAmount,\n            address recipient,\n            address organizer,\n            bool isActive,\n            uint256 verifierCount\n        )\n    {\n        Campaign storage campaign = campaigns[_campaignId];\n        return (\n            campaign.id,\n            campaign.title,\n            campaign.description,\n            campaign.goalAmount,\n            campaign.raisedAmount,\n            campaign.recipient,\n            campaign.organizer,\n            campaign.isActive,\n            campaign.verifierCount\n        );\n    }\n\n    function hasVerified(string memory _campaignId, address _verifier) \n        public \n        view \n        campaignExists(_campaignId)\n        returns (bool)\n    {\n        return campaigns[_campaignId].hasVerified[_verifier];\n    }\n}\n",
  "sourcePath": "/home/csc196/BlockChain-196D/contracts/DonationPlatform.sol",
  "compiler": {
    "name": "solc",
    "version": "0.8.19+commit.7dd6d404.Emscripten.clang"
  },
  "schemaVersion": "3.4.16",
  "updatedAt": "2025-03-23T05:48:24.172Z",
  "devdoc": {
    "kind": "dev",
    "methods": {},
    "version": 1
  },
  "userdoc": {
    "kind": "user",
    "methods": {},
    "version": 1
  }
}